{
  "_format": "hh-sol-artifact-1",
  "contractName": "transactioncheck",
  "sourceName": "contracts/transactioncheck.sol",
  "abi": [
    {
      "inputs": [
        {
          "internalType": "uint16",
          "name": "_UltimateDigitPhoneNumber",
          "type": "uint16"
        }
      ],
      "name": "SettingUniqueId",
      "outputs": [],
      "stateMutability": "nonpayable",
      "type": "function"
    },
    {
      "inputs": [
        {
          "internalType": "uint16",
          "name": "_UltimateDigitPhoneNumber",
          "type": "uint16"
        }
      ],
      "name": "checkAccount",
      "outputs": [
        {
          "internalType": "address",
          "name": "",
          "type": "address"
        }
      ],
      "stateMutability": "view",
      "type": "function"
    }
  ],
  "bytecode": "0x608060405234801561001057600080fd5b506102ca806100206000396000f3fe608060405234801561001057600080fd5b50600436106100365760003560e01c8063014bc5741461003b578063c6f1c5f814610057575b600080fd5b6100556004803603810190610050919061020b565b610087565b005b610071600480360381019061006c919061020b565b61014f565b60405161007e9190610279565b60405180910390f35b60001515600160008361ffff1661ffff16815260200190815260200160002060009054906101000a900460ff161515146100c057600080fd5b336000808361ffff1661ffff16815260200190815260200160002060006101000a81548173ffffffffffffffffffffffffffffffffffffffff021916908373ffffffffffffffffffffffffffffffffffffffff16021790555060018060008361ffff1661ffff16815260200190815260200160002060006101000a81548160ff02191690831515021790555050565b600060011515600160008461ffff1661ffff16815260200190815260200160002060009054906101000a900460ff1615151461018a57600080fd5b6000808361ffff1661ffff16815260200190815260200160002060009054906101000a900473ffffffffffffffffffffffffffffffffffffffff169050919050565b600080fd5b600061ffff82169050919050565b6101e8816101d1565b81146101f357600080fd5b50565b600081359050610205816101df565b92915050565b600060208284031215610221576102206101cc565b5b600061022f848285016101f6565b91505092915050565b600073ffffffffffffffffffffffffffffffffffffffff82169050919050565b600061026382610238565b9050919050565b61027381610258565b82525050565b600060208201905061028e600083018461026a565b9291505056fea2646970667358221220b42708fe265502b85f0fd8bbcdc187ef2bdd2a4c1f6b9f1f433d8c562b72f0e164736f6c63430008120033",
  "linkReferences": {},
  "deployedLinkReferences": {}
}